{
  "_format": "hh-sol-artifact-1",
  "contractName": "BookLibraryWithToken",
  "sourceName": "contracts/BookLibraryWithToken.sol",
  "abi": [
    {
      "inputs": [
        {
          "internalType": "address",
          "name": "libraryTokenWithPermitsAddress",
          "type": "address"
        }
      ],
      "stateMutability": "nonpayable",
      "type": "constructor"
    },
    {
      "anonymous": false,
      "inputs": [
        {
          "indexed": false,
          "internalType": "string",
          "name": "title",
          "type": "string"
        },
        {
          "indexed": false,
          "internalType": "address",
          "name": "borrower",
          "type": "address"
        },
        {
          "indexed": false,
          "internalType": "uint256",
          "name": "availableCopies",
          "type": "uint256"
        }
      ],
      "name": "BookBorrowed",
      "type": "event"
    },
    {
      "anonymous": false,
      "inputs": [
        {
          "indexed": false,
          "internalType": "string",
          "name": "title",
          "type": "string"
        },
        {
          "indexed": false,
          "internalType": "uint256",
          "name": "copies",
          "type": "uint256"
        }
      ],
      "name": "BookCopyAdded",
      "type": "event"
    },
    {
      "anonymous": false,
      "inputs": [
        {
          "indexed": false,
          "internalType": "string",
          "name": "title",
          "type": "string"
        },
        {
          "indexed": false,
          "internalType": "address",
          "name": "borrower",
          "type": "address"
        },
        {
          "indexed": false,
          "internalType": "uint256",
          "name": "availableCopies",
          "type": "uint256"
        }
      ],
      "name": "BookReturned",
      "type": "event"
    },
    {
      "anonymous": false,
      "inputs": [
        {
          "indexed": false,
          "internalType": "string",
          "name": "title",
          "type": "string"
        }
      ],
      "name": "NewBookAdded",
      "type": "event"
    },
    {
      "anonymous": false,
      "inputs": [
        {
          "indexed": true,
          "internalType": "address",
          "name": "previousOwner",
          "type": "address"
        },
        {
          "indexed": true,
          "internalType": "address",
          "name": "newOwner",
          "type": "address"
        }
      ],
      "name": "OwnershipTransferred",
      "type": "event"
    },
    {
      "inputs": [
        {
          "internalType": "string",
          "name": "_title",
          "type": "string"
        }
      ],
      "name": "addBook",
      "outputs": [],
      "stateMutability": "nonpayable",
      "type": "function"
    },
    {
      "inputs": [
        {
          "internalType": "uint256",
          "name": "",
          "type": "uint256"
        }
      ],
      "name": "bookKeys",
      "outputs": [
        {
          "internalType": "bytes32",
          "name": "",
          "type": "bytes32"
        }
      ],
      "stateMutability": "view",
      "type": "function"
    },
    {
      "inputs": [
        {
          "internalType": "bytes32",
          "name": "",
          "type": "bytes32"
        }
      ],
      "name": "books",
      "outputs": [
        {
          "internalType": "string",
          "name": "title",
          "type": "string"
        },
        {
          "internalType": "uint256",
          "name": "copies",
          "type": "uint256"
        }
      ],
      "stateMutability": "view",
      "type": "function"
    },
    {
      "inputs": [
        {
          "internalType": "string",
          "name": "_title",
          "type": "string"
        }
      ],
      "name": "borrowBook",
      "outputs": [],
      "stateMutability": "nonpayable",
      "type": "function"
    },
    {
      "inputs": [
        {
          "internalType": "bytes32",
          "name": "bookId",
          "type": "bytes32"
        },
        {
          "internalType": "uint256",
          "name": "value",
          "type": "uint256"
        },
        {
          "internalType": "uint256",
          "name": "deadline",
          "type": "uint256"
        },
        {
          "internalType": "uint8",
          "name": "v",
          "type": "uint8"
        },
        {
          "internalType": "bytes32",
          "name": "r",
          "type": "bytes32"
        },
        {
          "internalType": "bytes32",
          "name": "s",
          "type": "bytes32"
        }
      ],
      "name": "borrowBookWithPermit",
      "outputs": [],
      "stateMutability": "nonpayable",
      "type": "function"
    },
    {
      "inputs": [
        {
          "internalType": "address",
          "name": "",
          "type": "address"
        },
        {
          "internalType": "bytes32",
          "name": "",
          "type": "bytes32"
        }
      ],
      "name": "borrowedBook",
      "outputs": [
        {
          "internalType": "bool",
          "name": "",
          "type": "bool"
        }
      ],
      "stateMutability": "view",
      "type": "function"
    },
    {
      "inputs": [
        {
          "internalType": "bytes32",
          "name": "_bookKey",
          "type": "bytes32"
        }
      ],
      "name": "getBookByKey",
      "outputs": [
        {
          "components": [
            {
              "internalType": "string",
              "name": "title",
              "type": "string"
            },
            {
              "internalType": "uint256",
              "name": "copies",
              "type": "uint256"
            },
            {
              "internalType": "address[]",
              "name": "borrowers",
              "type": "address[]"
            }
          ],
          "internalType": "struct BookLibraryWithToken.Book",
          "name": "requestedBook",
          "type": "tuple"
        }
      ],
      "stateMutability": "view",
      "type": "function"
    },
    {
      "inputs": [
        {
          "internalType": "string",
          "name": "_title",
          "type": "string"
        }
      ],
      "name": "getBookByTitle",
      "outputs": [
        {
          "components": [
            {
              "internalType": "string",
              "name": "title",
              "type": "string"
            },
            {
              "internalType": "uint256",
              "name": "copies",
              "type": "uint256"
            },
            {
              "internalType": "address[]",
              "name": "borrowers",
              "type": "address[]"
            }
          ],
          "internalType": "struct BookLibraryWithToken.Book",
          "name": "requestedBook",
          "type": "tuple"
        }
      ],
      "stateMutability": "view",
      "type": "function"
    },
    {
      "inputs": [
        {
          "internalType": "string",
          "name": "_title",
          "type": "string"
        }
      ],
      "name": "getBorrowers",
      "outputs": [
        {
          "internalType": "address[]",
          "name": "borrowers",
          "type": "address[]"
        }
      ],
      "stateMutability": "view",
      "type": "function"
    },
    {
      "inputs": [],
      "name": "getNumberOfBooks",
      "outputs": [
        {
          "internalType": "uint256",
          "name": "_numberOfBooks",
          "type": "uint256"
        }
      ],
      "stateMutability": "view",
      "type": "function"
    },
    {
      "inputs": [],
      "name": "libraryToken",
      "outputs": [
        {
          "internalType": "contract Lib",
          "name": "",
          "type": "address"
        }
      ],
      "stateMutability": "view",
      "type": "function"
    },
    {
      "inputs": [],
      "name": "owner",
      "outputs": [
        {
          "internalType": "address",
          "name": "",
          "type": "address"
        }
      ],
      "stateMutability": "view",
      "type": "function"
    },
    {
      "inputs": [],
      "name": "renounceOwnership",
      "outputs": [],
      "stateMutability": "nonpayable",
      "type": "function"
    },
    {
      "inputs": [
        {
          "internalType": "string",
          "name": "_title",
          "type": "string"
        }
      ],
      "name": "returnBook",
      "outputs": [],
      "stateMutability": "nonpayable",
      "type": "function"
    },
    {
      "inputs": [
        {
          "internalType": "address",
          "name": "newOwner",
          "type": "address"
        }
      ],
      "name": "transferOwnership",
      "outputs": [],
      "stateMutability": "nonpayable",
      "type": "function"
    }
  ],
  "bytecode": "0x608060405234801561001057600080fd5b5060405161170438038061170483398101604081905261002f916100ad565b6100383361005d565b600480546001600160a01b0319166001600160a01b03929092169190911790556100dd565b600080546001600160a01b038381166001600160a01b0319831681178455604051919092169283917f8be0079c531659141344cd1fd0a4f28419497f9722a3daafe3b4186f6b6457e09190a35050565b6000602082840312156100bf57600080fd5b81516001600160a01b03811681146100d657600080fd5b9392505050565b611618806100ec6000396000f3fe608060405234801561001057600080fd5b50600436106100f55760003560e01c80638da5cb5b11610097578063ced96fe311610066578063ced96fe314610233578063dae47ab014610246578063ef91fc8b14610259578063f2fde38b1461026c57600080fd5b80638da5cb5b146101b157806397ba532b146101c25780639f40eb59146101d5578063bddc6fa7146101f557600080fd5b8063405f7d83116100d3578063405f7d831461014c578063582bcda514610177578063715018a6146101975780638625f9d21461019f57600080fd5b80630c0dee70146100fa5780631ef49a8c146101245780633bc5f48a14610139575b600080fd5b61010d610108366004610fea565b61027f565b60405161011b929190611053565b60405180910390f35b61013761013236600461108b565b610323565b005b61013761014736600461108b565b610467565b60045461015f906001600160a01b031681565b6040516001600160a01b03909116815260200161011b565b61018a61018536600461108b565b6105e7565b60405161011b919061113c565b6101376106a6565b6002545b60405190815260200161011b565b6000546001600160a01b031661015f565b6101376101d0366004611189565b6106ba565b6101e86101e336600461108b565b610932565b60405161011b91906111e2565b61022361020336600461127b565b600360209081526000928352604080842090915290825290205460ff1681565b604051901515815260200161011b565b61013761024136600461108b565b610ac2565b6101a3610254366004610fea565b610c93565b6101e8610267366004610fea565b610cb4565b61013761027a3660046112a5565b610df5565b60016020526000908152604090208054819061029a906112c7565b80601f01602080910402602001604051908101604052809291908181526020018280546102c6906112c7565b80156103135780601f106102e857610100808354040283529160200191610313565b820191906000526020600020905b8154815290600101906020018083116102f657829003601f168201915b5050505050908060010154905082565b80518190819061034e5760405162461bcd60e51b815260040161034590611301565b60405180910390fd5b600080600061035c86610e6e565b9250925092508261037f5760405162461bcd60e51b81526004016103459061132d565b33600090815260036020908152604080832085845290915290205460ff166103e95760405162461bcd60e51b815260206004820181905260248201527f596f752068617665206e6f7420626f72726f776564207468697320626f6f6b2e6044820152606401610345565b3360009081526003602090815260408083208584529091528120805460ff191690556001820180549161041b83611385565b91905055507f83ca20d6e396f7c18544b71399c2d10a44162e3f7f3fa27a606c7e47b34b2177863383600101546040516104579392919061139e565b60405180910390a1505050505050565b61046f610ec6565b8051819081906104915760405162461bcd60e51b815260040161034590611301565b600080600061049f86610e6e565b925092509250826105515760408051606081018252878152600160208083018290528351600080825281830186528486019190915286815291905291909120815182919081906104ef9082611417565b506020828101516001830155604083015180516105129260028501920190610f70565b5050600280546001810182556000919091527f405787fa12a823e0f2b7631cc41b3ba8828b3321ca811111fa75cd3aa3bb5ace01849055506105699050565b60018101805490600061056383611385565b91905055505b826105aa577f6f7df3ddb0276c8e8fa5a2a8c8ad2bfc017c8d87025883e3f7994183576639cd8660405161059d91906114d7565b60405180910390a16105df565b7fcf7851ca24dceb3521f33097dab2db007d12f16b81adac954da0152029186e06868260010154604051610457929190611053565b505050505050565b606081600081905060008151116106105760405162461bcd60e51b815260040161034590611301565b60008061061c86610e6e565b92505091508161063e5760405162461bcd60e51b81526004016103459061132d565b8060020180548060200260200160405190810160405280929190818152602001828054801561069657602002820191906000526020600020905b81546001600160a01b03168152600190910190602001808311610678575b5050505050945050505050919050565b6106ae610ec6565b6106b86000610f20565b565b600086815260016020819052604090912090810154620f4240906107175760405162461bcd60e51b81526020600482015260146024820152732a3432b9329030b9329037379031b7b834b2b99760611b6044820152606401610345565b3360009081526003602090815260408083208b845290915290205460ff16156107825760405162461bcd60e51b815260206004820152601b60248201527f5468697320626f6f6b20697320616c72656164792074616b656e2100000000006044820152606401610345565b6004805460405163d505accf60e01b81523392810192909252306024830152604482018990526064820188905260ff8716608483015260a4820186905260c482018590526001600160a01b03169063d505accf9060e401600060405180830381600087803b1580156107f357600080fd5b505af1158015610807573d6000803e3d6000fd5b5050600480546040516323b872dd60e01b81523392810192909252306024830152604482018590526001600160a01b031692506323b872dd91506064016020604051808303816000875af1158015610863573d6000803e3d6000fd5b505050506040513d601f19601f8201168201806040525081019061088791906114ea565b503360008181526003602090815260408083208c845282528220805460ff19166001908117909155600286018054808301825590845291832090910180546001600160a01b0319169093179092559083018054916108e48361150c565b909155505060018201546040517fea1ffa032f509ac7c23c91d01259c31196a0e01bd98ed9f010ec8c45f751c2a1916109209185913391611523565b60405180910390a15050505050505050565b61095660405180606001604052806060815260200160008152602001606081525090565b8151829081906109785760405162461bcd60e51b815260040161034590611301565b60008460405160200161098b91906115c6565b60408051601f1981840301815282825280516020918201206000818152600190925290829020606084019092528154909350829082906109ca906112c7565b80601f01602080910402602001604051908101604052809291908181526020018280546109f6906112c7565b8015610a435780601f10610a1857610100808354040283529160200191610a43565b820191906000526020600020905b815481529060010190602001808311610a2657829003601f168201915b505050505081526020016001820154815260200160028201805480602002602001604051908101604052809291908181526020018280548015610aaf57602002820191906000526020600020905b81546001600160a01b03168152600190910190602001808311610a91575b5050505050815250509350505050919050565b805181908190610ae45760405162461bcd60e51b815260040161034590611301565b6000806000610af286610e6e565b92509250925082610b155760405162461bcd60e51b81526004016103459061132d565b6000816001015411610b825760405162461bcd60e51b815260206004820152603060248201527f546865726520617265206e6f206d6f726520617661696c61626c6520636f706960448201526f32b99037b3103a3434b9903137b7b59760811b6064820152608401610345565b33600090815260036020908152604080832085845290915290205460ff1615610bf95760405162461bcd60e51b8152602060048201526024808201527f596f75206861766520616c726561647920626f72726f7765642074686973206260448201526337b7b59760e11b6064820152608401610345565b3360009081526003602090815260408083208584529091528120805460ff191660019081179091558201805491610c2f8361150c565b909155505060028101805460018181018355600092835260209092200180546001600160a01b03191633908117909155908201546040517fea1ffa032f509ac7c23c91d01259c31196a0e01bd98ed9f010ec8c45f751c2a192610457928a9261139e565b60028181548110610ca357600080fd5b600091825260209091200154905081565b610cd860405180606001604052806060815260200160008152602001606081525090565b60008281526001602052604090819020815160608101909252805482908290610d00906112c7565b80601f0160208091040260200160405190810160405280929190818152602001828054610d2c906112c7565b8015610d795780601f10610d4e57610100808354040283529160200191610d79565b820191906000526020600020905b815481529060010190602001808311610d5c57829003601f168201915b505050505081526020016001820154815260200160028201805480602002602001604051908101604052809291908181526020018280548015610de557602002820191906000526020600020905b81546001600160a01b03168152600190910190602001808311610dc7575b5050505050815250509050919050565b610dfd610ec6565b6001600160a01b038116610e625760405162461bcd60e51b815260206004820152602660248201527f4f776e61626c653a206e6577206f776e657220697320746865207a65726f206160448201526564647265737360d01b6064820152608401610345565b610e6b81610f20565b50565b600080600083604051602001610e8491906115c6565b60408051601f198184030181529181528151602092830120600081815260019093529120805491935091508190610eba906112c7565b15159592945090925050565b6000546001600160a01b031633146106b85760405162461bcd60e51b815260206004820181905260248201527f4f776e61626c653a2063616c6c6572206973206e6f7420746865206f776e65726044820152606401610345565b600080546001600160a01b038381166001600160a01b0319831681178455604051919092169283917f8be0079c531659141344cd1fd0a4f28419497f9722a3daafe3b4186f6b6457e09190a35050565b828054828255906000526020600020908101928215610fc5579160200282015b82811115610fc557825182546001600160a01b0319166001600160a01b03909116178255602090920191600190910190610f90565b50610fd1929150610fd5565b5090565b5b80821115610fd15760008155600101610fd6565b600060208284031215610ffc57600080fd5b5035919050565b60005b8381101561101e578181015183820152602001611006565b50506000910152565b6000815180845261103f816020860160208601611003565b601f01601f19169290920160200192915050565b6040815260006110666040830185611027565b90508260208301529392505050565b634e487b7160e01b600052604160045260246000fd5b60006020828403121561109d57600080fd5b813567ffffffffffffffff808211156110b557600080fd5b818401915084601f8301126110c957600080fd5b8135818111156110db576110db611075565b604051601f8201601f19908116603f0116810190838211818310171561110357611103611075565b8160405282815287602084870101111561111c57600080fd5b826020860160208301376000928101602001929092525095945050505050565b6020808252825182820181905260009190848201906040850190845b8181101561117d5783516001600160a01b031683529284019291840191600101611158565b50909695505050505050565b60008060008060008060c087890312156111a257600080fd5b863595506020870135945060408701359350606087013560ff811681146111c857600080fd5b9598949750929560808101359460a0909101359350915050565b6000602080835283516060828501526111fe6080850182611027565b85830151604086810191909152860151858203601f19016060870152805180835290840192506000918401905b808310156112545783516001600160a01b0316825292840192600192909201919084019061122b565b509695505050505050565b80356001600160a01b038116811461127657600080fd5b919050565b6000806040838503121561128e57600080fd5b6112978361125f565b946020939093013593505050565b6000602082840312156112b757600080fd5b6112c08261125f565b9392505050565b600181811c908216806112db57607f821691505b6020821081036112fb57634e487b7160e01b600052602260045260246000fd5b50919050565b602080825260129082015271151a5d1b19481a5cc81b9bdd081d985b1a5960721b604082015260600190565b60208082526022908201527f5468652072657175657374656420626f6f6b20646f6573206e6f7420657869736040820152613a1760f11b606082015260800190565b634e487b7160e01b600052601160045260246000fd5b6000600182016113975761139761136f565b5060010190565b6060815260006113b16060830186611027565b6001600160a01b039490941660208301525060400152919050565b601f82111561141257600081815260208120601f850160051c810160208610156113f35750805b601f850160051c820191505b818110156105df578281556001016113ff565b505050565b815167ffffffffffffffff81111561143157611431611075565b6114458161143f84546112c7565b846113cc565b602080601f83116001811461147a57600084156114625750858301515b600019600386901b1c1916600185901b1785556105df565b600085815260208120601f198616915b828110156114a95788860151825594840194600190910190840161148a565b50858210156114c75787850151600019600388901b60f8161c191681555b5050505050600190811b01905550565b6020815260006112c06020830184611027565b6000602082840312156114fc57600080fd5b815180151581146112c057600080fd5b60008161151b5761151b61136f565b506000190190565b606081526000808554611535816112c7565b80606086015260806001808416600081146115575760018114611571576115a2565b60ff1985168884015283151560051b8801830195506115a2565b8a60005260208060002060005b868110156115995781548b820187015290840190820161157e565b8a018501975050505b505050506001600160a01b0386166020850152509050826040830152949350505050565b600082516115d8818460208701611003565b919091019291505056fea264697066735822122097c0f7e8605a1d8d6d05467887bca6b8f6b6eea2682a7afaea084dc63b24644964736f6c63430008110033",
  "linkReferences": {},
  "deployedLinkReferences": {}
}