{
  "_format": "hh-sol-artifact-1",
  "contractName": "BookLibraryWithToken",
  "sourceName": "contracts/BookLibraryWithToken.sol",
  "abi": [
    {
      "inputs": [
        {
          "internalType": "address",
          "name": "libraryTokenWithPermitsAddress",
          "type": "address"
        }
      ],
      "stateMutability": "nonpayable",
      "type": "constructor"
    },
    {
      "anonymous": false,
      "inputs": [
        {
          "indexed": false,
          "internalType": "string",
          "name": "title",
          "type": "string"
        },
        {
          "indexed": false,
          "internalType": "address",
          "name": "borrower",
          "type": "address"
        },
        {
          "indexed": false,
          "internalType": "uint256",
          "name": "availableCopies",
          "type": "uint256"
        }
      ],
      "name": "BookBorrowed",
      "type": "event"
    },
    {
      "anonymous": false,
      "inputs": [
        {
          "indexed": false,
          "internalType": "string",
          "name": "title",
          "type": "string"
        },
        {
          "indexed": false,
          "internalType": "uint256",
          "name": "copies",
          "type": "uint256"
        }
      ],
      "name": "BookCopyAdded",
      "type": "event"
    },
    {
      "anonymous": false,
      "inputs": [
        {
          "indexed": false,
          "internalType": "string",
          "name": "title",
          "type": "string"
        },
        {
          "indexed": false,
          "internalType": "address",
          "name": "borrower",
          "type": "address"
        },
        {
          "indexed": false,
          "internalType": "uint256",
          "name": "availableCopies",
          "type": "uint256"
        }
      ],
      "name": "BookReturned",
      "type": "event"
    },
    {
      "anonymous": false,
      "inputs": [
        {
          "indexed": false,
          "internalType": "string",
          "name": "title",
          "type": "string"
        }
      ],
      "name": "NewBookAdded",
      "type": "event"
    },
    {
      "anonymous": false,
      "inputs": [
        {
          "indexed": true,
          "internalType": "address",
          "name": "previousOwner",
          "type": "address"
        },
        {
          "indexed": true,
          "internalType": "address",
          "name": "newOwner",
          "type": "address"
        }
      ],
      "name": "OwnershipTransferred",
      "type": "event"
    },
    {
      "inputs": [
        {
          "internalType": "string",
          "name": "_title",
          "type": "string"
        }
      ],
      "name": "addBook",
      "outputs": [],
      "stateMutability": "nonpayable",
      "type": "function"
    },
    {
      "inputs": [
        {
          "internalType": "uint256",
          "name": "",
          "type": "uint256"
        }
      ],
      "name": "bookKeys",
      "outputs": [
        {
          "internalType": "bytes32",
          "name": "",
          "type": "bytes32"
        }
      ],
      "stateMutability": "view",
      "type": "function"
    },
    {
      "inputs": [
        {
          "internalType": "bytes32",
          "name": "",
          "type": "bytes32"
        }
      ],
      "name": "books",
      "outputs": [
        {
          "internalType": "string",
          "name": "title",
          "type": "string"
        },
        {
          "internalType": "uint256",
          "name": "copies",
          "type": "uint256"
        }
      ],
      "stateMutability": "view",
      "type": "function"
    },
    {
      "inputs": [
        {
          "internalType": "bytes32",
          "name": "bookId",
          "type": "bytes32"
        },
        {
          "internalType": "uint256",
          "name": "value",
          "type": "uint256"
        },
        {
          "internalType": "uint256",
          "name": "deadline",
          "type": "uint256"
        },
        {
          "internalType": "uint8",
          "name": "v",
          "type": "uint8"
        },
        {
          "internalType": "bytes32",
          "name": "r",
          "type": "bytes32"
        },
        {
          "internalType": "bytes32",
          "name": "s",
          "type": "bytes32"
        }
      ],
      "name": "borrowBook",
      "outputs": [],
      "stateMutability": "nonpayable",
      "type": "function"
    },
    {
      "inputs": [
        {
          "internalType": "string",
          "name": "_title",
          "type": "string"
        }
      ],
      "name": "borrowBook",
      "outputs": [],
      "stateMutability": "nonpayable",
      "type": "function"
    },
    {
      "inputs": [
        {
          "internalType": "address",
          "name": "",
          "type": "address"
        },
        {
          "internalType": "bytes32",
          "name": "",
          "type": "bytes32"
        }
      ],
      "name": "borrowedBook",
      "outputs": [
        {
          "internalType": "bool",
          "name": "",
          "type": "bool"
        }
      ],
      "stateMutability": "view",
      "type": "function"
    },
    {
      "inputs": [
        {
          "internalType": "bytes32",
          "name": "_bookKey",
          "type": "bytes32"
        }
      ],
      "name": "getBookByKey",
      "outputs": [
        {
          "components": [
            {
              "internalType": "string",
              "name": "title",
              "type": "string"
            },
            {
              "internalType": "uint256",
              "name": "copies",
              "type": "uint256"
            },
            {
              "internalType": "address[]",
              "name": "borrowers",
              "type": "address[]"
            }
          ],
          "internalType": "struct BookLibraryWithToken.Book",
          "name": "requestedBook",
          "type": "tuple"
        }
      ],
      "stateMutability": "view",
      "type": "function"
    },
    {
      "inputs": [
        {
          "internalType": "string",
          "name": "_title",
          "type": "string"
        }
      ],
      "name": "getBookByTitle",
      "outputs": [
        {
          "components": [
            {
              "internalType": "string",
              "name": "title",
              "type": "string"
            },
            {
              "internalType": "uint256",
              "name": "copies",
              "type": "uint256"
            },
            {
              "internalType": "address[]",
              "name": "borrowers",
              "type": "address[]"
            }
          ],
          "internalType": "struct BookLibraryWithToken.Book",
          "name": "requestedBook",
          "type": "tuple"
        }
      ],
      "stateMutability": "view",
      "type": "function"
    },
    {
      "inputs": [
        {
          "internalType": "string",
          "name": "_title",
          "type": "string"
        }
      ],
      "name": "getBorrowers",
      "outputs": [
        {
          "internalType": "address[]",
          "name": "borrowers",
          "type": "address[]"
        }
      ],
      "stateMutability": "view",
      "type": "function"
    },
    {
      "inputs": [],
      "name": "getNumberOfBooks",
      "outputs": [
        {
          "internalType": "uint256",
          "name": "_numberOfBooks",
          "type": "uint256"
        }
      ],
      "stateMutability": "view",
      "type": "function"
    },
    {
      "inputs": [],
      "name": "libraryToken",
      "outputs": [
        {
          "internalType": "contract Lib",
          "name": "",
          "type": "address"
        }
      ],
      "stateMutability": "view",
      "type": "function"
    },
    {
      "inputs": [],
      "name": "owner",
      "outputs": [
        {
          "internalType": "address",
          "name": "",
          "type": "address"
        }
      ],
      "stateMutability": "view",
      "type": "function"
    },
    {
      "inputs": [],
      "name": "renounceOwnership",
      "outputs": [],
      "stateMutability": "nonpayable",
      "type": "function"
    },
    {
      "inputs": [
        {
          "internalType": "string",
          "name": "_title",
          "type": "string"
        }
      ],
      "name": "returnBook",
      "outputs": [],
      "stateMutability": "nonpayable",
      "type": "function"
    },
    {
      "inputs": [
        {
          "internalType": "address",
          "name": "newOwner",
          "type": "address"
        }
      ],
      "name": "transferOwnership",
      "outputs": [],
      "stateMutability": "nonpayable",
      "type": "function"
    }
  ],
  "bytecode": "0x608060405234801561001057600080fd5b5060405161170338038061170383398101604081905261002f916100ad565b6100383361005d565b600480546001600160a01b0319166001600160a01b03929092169190911790556100dd565b600080546001600160a01b038381166001600160a01b0319831681178455604051919092169283917f8be0079c531659141344cd1fd0a4f28419497f9722a3daafe3b4186f6b6457e09190a35050565b6000602082840312156100bf57600080fd5b81516001600160a01b03811681146100d657600080fd5b9392505050565b611617806100ec6000396000f3fe608060405234801561001057600080fd5b50600436106100f55760003560e01c80638625f9d211610097578063ced96fe311610066578063ced96fe314610233578063dae47ab014610246578063ef91fc8b14610259578063f2fde38b1461026c57600080fd5b80638625f9d2146101b25780638da5cb5b146101c45780639f40eb59146101d5578063bddc6fa7146101f557600080fd5b80633bc5f48a116100d35780633bc5f48a1461014c578063405f7d831461015f578063582bcda51461018a578063715018a6146101aa57600080fd5b80630c0dee70146100fa5780631ef49a8c1461012457806329d39bb314610139575b600080fd5b61010d610108366004610fe9565b61027f565b60405161011b929190611052565b60405180910390f35b61013761013236600461108a565b610323565b005b61013761014736600461113b565b610467565b61013761015a36600461108a565b6106de565b600454610172906001600160a01b031681565b6040516001600160a01b03909116815260200161011b565b61019d61019836600461108a565b61085e565b60405161011b9190611194565b61013761091d565b6002545b60405190815260200161011b565b6000546001600160a01b0316610172565b6101e86101e336600461108a565b610931565b60405161011b91906111e1565b61022361020336600461127a565b600360209081526000928352604080842090915290825290205460ff1681565b604051901515815260200161011b565b61013761024136600461108a565b610ac1565b6101b6610254366004610fe9565b610c92565b6101e8610267366004610fe9565b610cb3565b61013761027a3660046112a4565b610df4565b60016020526000908152604090208054819061029a906112c6565b80601f01602080910402602001604051908101604052809291908181526020018280546102c6906112c6565b80156103135780601f106102e857610100808354040283529160200191610313565b820191906000526020600020905b8154815290600101906020018083116102f657829003601f168201915b5050505050908060010154905082565b80518190819061034e5760405162461bcd60e51b815260040161034590611300565b60405180910390fd5b600080600061035c86610e6d565b9250925092508261037f5760405162461bcd60e51b81526004016103459061132c565b33600090815260036020908152604080832085845290915290205460ff166103e95760405162461bcd60e51b815260206004820181905260248201527f596f752068617665206e6f7420626f72726f776564207468697320626f6f6b2e6044820152606401610345565b3360009081526003602090815260408083208584529091528120805460ff191690556001820180549161041b83611384565b91905055507f83ca20d6e396f7c18544b71399c2d10a44162e3f7f3fa27a606c7e47b34b2177863383600101546040516104579392919061139d565b60405180910390a1505050505050565b600086815260016020819052604090912090810154620f4240906104c35760405162461bcd60e51b81526020600482015260136024820152722a3432b9329034b99037379031b7b834b2b99760691b6044820152606401610345565b3360009081526003602090815260408083208b845290915290205460ff161561052e5760405162461bcd60e51b815260206004820152601b60248201527f5468697320626f6f6b20697320616c72656164792074616b656e2100000000006044820152606401610345565b6004805460405163d505accf60e01b81523392810192909252306024830152604482018990526064820188905260ff8716608483015260a4820186905260c482018590526001600160a01b03169063d505accf9060e401600060405180830381600087803b15801561059f57600080fd5b505af11580156105b3573d6000803e3d6000fd5b5050600480546040516323b872dd60e01b81523392810192909252306024830152604482018590526001600160a01b031692506323b872dd91506064016020604051808303816000875af115801561060f573d6000803e3d6000fd5b505050506040513d601f19601f8201168201806040525081019061063391906113cb565b503360008181526003602090815260408083208c845282528220805460ff19166001908117909155600286018054808301825590845291832090910180546001600160a01b031916909317909255908301805491610690836113ed565b909155505060018201546040517fea1ffa032f509ac7c23c91d01259c31196a0e01bd98ed9f010ec8c45f751c2a1916106cc9185913391611404565b60405180910390a15050505050505050565b6106e6610ec5565b8051819081906107085760405162461bcd60e51b815260040161034590611300565b600080600061071686610e6d565b925092509250826107c857604080516060810182528781526001602080830182905283516000808252818301865284860191909152868152919052919091208151829190819061076690826114f2565b506020828101516001830155604083015180516107899260028501920190610f6f565b5050600280546001810182556000919091527f405787fa12a823e0f2b7631cc41b3ba8828b3321ca811111fa75cd3aa3bb5ace01849055506107e09050565b6001810180549060006107da83611384565b91905055505b82610821577f6f7df3ddb0276c8e8fa5a2a8c8ad2bfc017c8d87025883e3f7994183576639cd8660405161081491906115b2565b60405180910390a1610856565b7fcf7851ca24dceb3521f33097dab2db007d12f16b81adac954da0152029186e06868260010154604051610457929190611052565b505050505050565b606081600081905060008151116108875760405162461bcd60e51b815260040161034590611300565b60008061089386610e6d565b9250509150816108b55760405162461bcd60e51b81526004016103459061132c565b8060020180548060200260200160405190810160405280929190818152602001828054801561090d57602002820191906000526020600020905b81546001600160a01b031681526001909101906020018083116108ef575b5050505050945050505050919050565b610925610ec5565b61092f6000610f1f565b565b61095560405180606001604052806060815260200160008152602001606081525090565b8151829081906109775760405162461bcd60e51b815260040161034590611300565b60008460405160200161098a91906115c5565b60408051601f1981840301815282825280516020918201206000818152600190925290829020606084019092528154909350829082906109c9906112c6565b80601f01602080910402602001604051908101604052809291908181526020018280546109f5906112c6565b8015610a425780601f10610a1757610100808354040283529160200191610a42565b820191906000526020600020905b815481529060010190602001808311610a2557829003601f168201915b505050505081526020016001820154815260200160028201805480602002602001604051908101604052809291908181526020018280548015610aae57602002820191906000526020600020905b81546001600160a01b03168152600190910190602001808311610a90575b5050505050815250509350505050919050565b805181908190610ae35760405162461bcd60e51b815260040161034590611300565b6000806000610af186610e6d565b92509250925082610b145760405162461bcd60e51b81526004016103459061132c565b6000816001015411610b815760405162461bcd60e51b815260206004820152603060248201527f546865726520617265206e6f206d6f726520617661696c61626c6520636f706960448201526f32b99037b3103a3434b9903137b7b59760811b6064820152608401610345565b33600090815260036020908152604080832085845290915290205460ff1615610bf85760405162461bcd60e51b8152602060048201526024808201527f596f75206861766520616c726561647920626f72726f7765642074686973206260448201526337b7b59760e11b6064820152608401610345565b3360009081526003602090815260408083208584529091528120805460ff191660019081179091558201805491610c2e836113ed565b909155505060028101805460018181018355600092835260209092200180546001600160a01b03191633908117909155908201546040517fea1ffa032f509ac7c23c91d01259c31196a0e01bd98ed9f010ec8c45f751c2a192610457928a9261139d565b60028181548110610ca257600080fd5b600091825260209091200154905081565b610cd760405180606001604052806060815260200160008152602001606081525090565b60008281526001602052604090819020815160608101909252805482908290610cff906112c6565b80601f0160208091040260200160405190810160405280929190818152602001828054610d2b906112c6565b8015610d785780601f10610d4d57610100808354040283529160200191610d78565b820191906000526020600020905b815481529060010190602001808311610d5b57829003601f168201915b505050505081526020016001820154815260200160028201805480602002602001604051908101604052809291908181526020018280548015610de457602002820191906000526020600020905b81546001600160a01b03168152600190910190602001808311610dc6575b5050505050815250509050919050565b610dfc610ec5565b6001600160a01b038116610e615760405162461bcd60e51b815260206004820152602660248201527f4f776e61626c653a206e6577206f776e657220697320746865207a65726f206160448201526564647265737360d01b6064820152608401610345565b610e6a81610f1f565b50565b600080600083604051602001610e8391906115c5565b60408051601f198184030181529181528151602092830120600081815260019093529120805491935091508190610eb9906112c6565b15159592945090925050565b6000546001600160a01b0316331461092f5760405162461bcd60e51b815260206004820181905260248201527f4f776e61626c653a2063616c6c6572206973206e6f7420746865206f776e65726044820152606401610345565b600080546001600160a01b038381166001600160a01b0319831681178455604051919092169283917f8be0079c531659141344cd1fd0a4f28419497f9722a3daafe3b4186f6b6457e09190a35050565b828054828255906000526020600020908101928215610fc4579160200282015b82811115610fc457825182546001600160a01b0319166001600160a01b03909116178255602090920191600190910190610f8f565b50610fd0929150610fd4565b5090565b5b80821115610fd05760008155600101610fd5565b600060208284031215610ffb57600080fd5b5035919050565b60005b8381101561101d578181015183820152602001611005565b50506000910152565b6000815180845261103e816020860160208601611002565b601f01601f19169290920160200192915050565b6040815260006110656040830185611026565b90508260208301529392505050565b634e487b7160e01b600052604160045260246000fd5b60006020828403121561109c57600080fd5b813567ffffffffffffffff808211156110b457600080fd5b818401915084601f8301126110c857600080fd5b8135818111156110da576110da611074565b604051601f8201601f19908116603f0116810190838211818310171561110257611102611074565b8160405282815287602084870101111561111b57600080fd5b826020860160208301376000928101602001929092525095945050505050565b60008060008060008060c0878903121561115457600080fd5b863595506020870135945060408701359350606087013560ff8116811461117a57600080fd5b9598949750929560808101359460a0909101359350915050565b6020808252825182820181905260009190848201906040850190845b818110156111d55783516001600160a01b0316835292840192918401916001016111b0565b50909695505050505050565b6000602080835283516060828501526111fd6080850182611026565b85830151604086810191909152860151858203601f19016060870152805180835290840192506000918401905b808310156112535783516001600160a01b0316825292840192600192909201919084019061122a565b509695505050505050565b80356001600160a01b038116811461127557600080fd5b919050565b6000806040838503121561128d57600080fd5b6112968361125e565b946020939093013593505050565b6000602082840312156112b657600080fd5b6112bf8261125e565b9392505050565b600181811c908216806112da57607f821691505b6020821081036112fa57634e487b7160e01b600052602260045260246000fd5b50919050565b602080825260129082015271151a5d1b19481a5cc81b9bdd081d985b1a5960721b604082015260600190565b60208082526022908201527f5468652072657175657374656420626f6f6b20646f6573206e6f7420657869736040820152613a1760f11b606082015260800190565b634e487b7160e01b600052601160045260246000fd5b6000600182016113965761139661136e565b5060010190565b6060815260006113b06060830186611026565b6001600160a01b039490941660208301525060400152919050565b6000602082840312156113dd57600080fd5b815180151581146112bf57600080fd5b6000816113fc576113fc61136e565b506000190190565b606081526000808554611416816112c6565b8060608601526080600180841660008114611438576001811461145257611483565b60ff1985168884015283151560051b880183019550611483565b8a60005260208060002060005b8681101561147a5781548b820187015290840190820161145f565b8a018501975050505b505050506001600160a01b0386166020850152509050826040830152949350505050565b601f8211156114ed57600081815260208120601f850160051c810160208610156114ce5750805b601f850160051c820191505b81811015610856578281556001016114da565b505050565b815167ffffffffffffffff81111561150c5761150c611074565b6115208161151a84546112c6565b846114a7565b602080601f831160018114611555576000841561153d5750858301515b600019600386901b1c1916600185901b178555610856565b600085815260208120601f198616915b8281101561158457888601518255948401946001909101908401611565565b50858210156115a25787850151600019600388901b60f8161c191681555b5050505050600190811b01905550565b6020815260006112bf6020830184611026565b600082516115d7818460208701611002565b919091019291505056fea2646970667358221220f4af4c73d2f073d5d4d4a681386a426ac716262328b48cff431e38c3a8aa261264736f6c63430008110033",
  "linkReferences": {},
  "deployedLinkReferences": {}
}